{
    "contractName": "NBA_gembller",
    "abi": [
        {
            "inputs": [],
            "stateMutability": "nonpayable",
            "type": "constructor"
        },
        {
            "inputs": [
                {
                    "internalType": "string",
                    "name": "username",
                    "type": "string"
                },
                {
                    "internalType": "string",
                    "name": "playerName",
                    "type": "string"
                },
                {
                    "internalType": "uint256",
                    "name": "rebounds",
                    "type": "uint256"
                },
                {
                    "internalType": "uint256",
                    "name": "asists",
                    "type": "uint256"
                },
                {
                    "internalType": "uint256",
                    "name": "point",
                    "type": "uint256"
                },
                {
                    "internalType": "uint256",
                    "name": "blocks",
                    "type": "uint256"
                },
                {
                    "internalType": "uint256",
                    "name": "steals",
                    "type": "uint256"
                }
            ],
            "name": "addPlayerToUser",
            "outputs": [],
            "stateMutability": "nonpayable",
            "type": "function"
        },
        {
            "inputs": [
                {
                    "internalType": "string",
                    "name": "_username",
                    "type": "string"
                },
                {
                    "internalType": "uint256",
                    "name": "_initalPrice",
                    "type": "uint256"
                }
            ],
            "name": "addUserGambling",
            "outputs": [],
            "stateMutability": "nonpayable",
            "type": "function"
        },
        {
            "inputs": [
                {
                    "components": [
                        {
                            "internalType": "string",
                            "name": "name",
                            "type": "string"
                        },
                        {
                            "internalType": "uint256",
                            "name": "rebounds",
                            "type": "uint256"
                        },
                        {
                            "internalType": "uint256",
                            "name": "asists",
                            "type": "uint256"
                        },
                        {
                            "internalType": "uint256",
                            "name": "points",
                            "type": "uint256"
                        },
                        {
                            "internalType": "uint256",
                            "name": "blocks",
                            "type": "uint256"
                        },
                        {
                            "internalType": "uint256",
                            "name": "steals",
                            "type": "uint256"
                        }
                    ],
                    "internalType": "struct NBA_gembller.BPlayer",
                    "name": "player",
                    "type": "tuple"
                }
            ],
            "name": "calculataPlayerSum",
            "outputs": [
                {
                    "internalType": "uint256",
                    "name": "",
                    "type": "uint256"
                }
            ],
            "stateMutability": "view",
            "type": "function"
        },
        {
            "inputs": [
                {
                    "internalType": "uint256",
                    "name": "gambllerNum",
                    "type": "uint256"
                },
                {
                    "internalType": "uint256",
                    "name": "battleNum",
                    "type": "uint256"
                },
                {
                    "internalType": "uint256",
                    "name": "rebounds",
                    "type": "uint256"
                },
                {
                    "internalType": "uint256",
                    "name": "asists",
                    "type": "uint256"
                },
                {
                    "internalType": "uint256",
                    "name": "point",
                    "type": "uint256"
                },
                {
                    "internalType": "uint256",
                    "name": "blocks",
                    "type": "uint256"
                },
                {
                    "internalType": "uint256",
                    "name": "steals",
                    "type": "uint256"
                }
            ],
            "name": "calculateDayStatisticsOfPlayer",
            "outputs": [],
            "stateMutability": "nonpayable",
            "type": "function"
        },
        {
            "inputs": [
                {
                    "internalType": "uint256",
                    "name": "_price",
                    "type": "uint256"
                },
                {
                    "internalType": "string",
                    "name": "_username",
                    "type": "string"
                }
            ],
            "name": "calculateGamblePriceWinner",
            "outputs": [
                {
                    "internalType": "uint256",
                    "name": "",
                    "type": "uint256"
                }
            ],
            "stateMutability": "view",
            "type": "function"
        },
        {
            "inputs": [
                {
                    "internalType": "string",
                    "name": "userName",
                    "type": "string"
                }
            ],
            "name": "createBattle",
            "outputs": [],
            "stateMutability": "nonpayable",
            "type": "function"
        },
        {
            "inputs": [
                {
                    "internalType": "uint256",
                    "name": "battleNum",
                    "type": "uint256"
                }
            ],
            "name": "getGamblingBattle",
            "outputs": [
                {
                    "components": [
                        {
                            "components": [
                                {
                                    "components": [
                                        {
                                            "internalType": "string",
                                            "name": "firtsName",
                                            "type": "string"
                                        },
                                        {
                                            "internalType": "string",
                                            "name": "username",
                                            "type": "string"
                                        },
                                        {
                                            "internalType": "string",
                                            "name": "password",
                                            "type": "string"
                                        }
                                    ],
                                    "internalType": "struct NBA_gembller.User",
                                    "name": "user",
                                    "type": "tuple"
                                },
                                {
                                    "components": [
                                        {
                                            "internalType": "string",
                                            "name": "name",
                                            "type": "string"
                                        },
                                        {
                                            "internalType": "uint256",
                                            "name": "rebounds",
                                            "type": "uint256"
                                        },
                                        {
                                            "internalType": "uint256",
                                            "name": "asists",
                                            "type": "uint256"
                                        },
                                        {
                                            "internalType": "uint256",
                                            "name": "points",
                                            "type": "uint256"
                                        },
                                        {
                                            "internalType": "uint256",
                                            "name": "blocks",
                                            "type": "uint256"
                                        },
                                        {
                                            "internalType": "uint256",
                                            "name": "steals",
                                            "type": "uint256"
                                        }
                                    ],
                                    "internalType": "struct NBA_gembller.BPlayer[]",
                                    "name": "players",
                                    "type": "tuple[]"
                                },
                                {
                                    "internalType": "uint256",
                                    "name": "gamblerSum",
                                    "type": "uint256"
                                },
                                {
                                    "internalType": "uint256",
                                    "name": "initialPrice",
                                    "type": "uint256"
                                },
                                {
                                    "internalType": "bool",
                                    "name": "valid",
                                    "type": "bool"
                                }
                            ],
                            "internalType": "struct NBA_gembller.UserGamble",
                            "name": "userGamble1",
                            "type": "tuple"
                        },
                        {
                            "components": [
                                {
                                    "components": [
                                        {
                                            "internalType": "string",
                                            "name": "firtsName",
                                            "type": "string"
                                        },
                                        {
                                            "internalType": "string",
                                            "name": "username",
                                            "type": "string"
                                        },
                                        {
                                            "internalType": "string",
                                            "name": "password",
                                            "type": "string"
                                        }
                                    ],
                                    "internalType": "struct NBA_gembller.User",
                                    "name": "user",
                                    "type": "tuple"
                                },
                                {
                                    "components": [
                                        {
                                            "internalType": "string",
                                            "name": "name",
                                            "type": "string"
                                        },
                                        {
                                            "internalType": "uint256",
                                            "name": "rebounds",
                                            "type": "uint256"
                                        },
                                        {
                                            "internalType": "uint256",
                                            "name": "asists",
                                            "type": "uint256"
                                        },
                                        {
                                            "internalType": "uint256",
                                            "name": "points",
                                            "type": "uint256"
                                        },
                                        {
                                            "internalType": "uint256",
                                            "name": "blocks",
                                            "type": "uint256"
                                        },
                                        {
                                            "internalType": "uint256",
                                            "name": "steals",
                                            "type": "uint256"
                                        }
                                    ],
                                    "internalType": "struct NBA_gembller.BPlayer[]",
                                    "name": "players",
                                    "type": "tuple[]"
                                },
                                {
                                    "internalType": "uint256",
                                    "name": "gamblerSum",
                                    "type": "uint256"
                                },
                                {
                                    "internalType": "uint256",
                                    "name": "initialPrice",
                                    "type": "uint256"
                                },
                                {
                                    "internalType": "bool",
                                    "name": "valid",
                                    "type": "bool"
                                }
                            ],
                            "internalType": "struct NBA_gembller.UserGamble",
                            "name": "userGamble2",
                            "type": "tuple"
                        },
                        {
                            "internalType": "uint256",
                            "name": "scoreUserGamble1",
                            "type": "uint256"
                        },
                        {
                            "internalType": "uint256",
                            "name": "scoreUserGamble2",
                            "type": "uint256"
                        }
                    ],
                    "internalType": "struct NBA_gembller.GamblingBattle",
                    "name": "",
                    "type": "tuple"
                }
            ],
            "stateMutability": "view",
            "type": "function"
        },
        {
            "inputs": [
                {
                    "internalType": "string",
                    "name": "username",
                    "type": "string"
                }
            ],
            "name": "getUserGambllerByUserName",
            "outputs": [
                {
                    "components": [
                        {
                            "components": [
                                {
                                    "internalType": "string",
                                    "name": "firtsName",
                                    "type": "string"
                                },
                                {
                                    "internalType": "string",
                                    "name": "username",
                                    "type": "string"
                                },
                                {
                                    "internalType": "string",
                                    "name": "password",
                                    "type": "string"
                                }
                            ],
                            "internalType": "struct NBA_gembller.User",
                            "name": "user",
                            "type": "tuple"
                        },
                        {
                            "components": [
                                {
                                    "internalType": "string",
                                    "name": "name",
                                    "type": "string"
                                },
                                {
                                    "internalType": "uint256",
                                    "name": "rebounds",
                                    "type": "uint256"
                                },
                                {
                                    "internalType": "uint256",
                                    "name": "asists",
                                    "type": "uint256"
                                },
                                {
                                    "internalType": "uint256",
                                    "name": "points",
                                    "type": "uint256"
                                },
                                {
                                    "internalType": "uint256",
                                    "name": "blocks",
                                    "type": "uint256"
                                },
                                {
                                    "internalType": "uint256",
                                    "name": "steals",
                                    "type": "uint256"
                                }
                            ],
                            "internalType": "struct NBA_gembller.BPlayer[]",
                            "name": "players",
                            "type": "tuple[]"
                        },
                        {
                            "internalType": "uint256",
                            "name": "gamblerSum",
                            "type": "uint256"
                        },
                        {
                            "internalType": "uint256",
                            "name": "initialPrice",
                            "type": "uint256"
                        },
                        {
                            "internalType": "bool",
                            "name": "valid",
                            "type": "bool"
                        }
                    ],
                    "internalType": "struct NBA_gembller.UserGamble",
                    "name": "",
                    "type": "tuple"
                }
            ],
            "stateMutability": "view",
            "type": "function"
        },
        {
            "inputs": [
                {
                    "internalType": "string",
                    "name": "username",
                    "type": "string"
                }
            ],
            "name": "login",
            "outputs": [
                {
                    "internalType": "bool",
                    "name": "",
                    "type": "bool"
                }
            ],
            "stateMutability": "view",
            "type": "function"
        },
        {
            "inputs": [
                {
                    "internalType": "string",
                    "name": "firtsName",
                    "type": "string"
                },
                {
                    "internalType": "string",
                    "name": "username",
                    "type": "string"
                },
                {
                    "internalType": "string",
                    "name": "password",
                    "type": "string"
                }
            ],
            "name": "register",
            "outputs": [],
            "stateMutability": "nonpayable",
            "type": "function"
        },
        {
            "inputs": [
                {
                    "internalType": "uint256",
                    "name": "",
                    "type": "uint256"
                }
            ],
            "name": "userWhoWantToGambller",
            "outputs": [
                {
                    "internalType": "string",
                    "name": "firtsName",
                    "type": "string"
                },
                {
                    "internalType": "string",
                    "name": "username",
                    "type": "string"
                },
                {
                    "internalType": "string",
                    "name": "password",
                    "type": "string"
                }
            ],
            "stateMutability": "view",
            "type": "function"
        },
        {
            "inputs": [
                {
                    "internalType": "uint256",
                    "name": "battleNum",
                    "type": "uint256"
                }
            ],
            "name": "winner",
            "outputs": [
                {
                    "components": [
                        {
                            "components": [
                                {
                                    "internalType": "string",
                                    "name": "firtsName",
                                    "type": "string"
                                },
                                {
                                    "internalType": "string",
                                    "name": "username",
                                    "type": "string"
                                },
                                {
                                    "internalType": "string",
                                    "name": "password",
                                    "type": "string"
                                }
                            ],
                            "internalType": "struct NBA_gembller.User",
                            "name": "user",
                            "type": "tuple"
                        },
                        {
                            "components": [
                                {
                                    "internalType": "string",
                                    "name": "name",
                                    "type": "string"
                                },
                                {
                                    "internalType": "uint256",
                                    "name": "rebounds",
                                    "type": "uint256"
                                },
                                {
                                    "internalType": "uint256",
                                    "name": "asists",
                                    "type": "uint256"
                                },
                                {
                                    "internalType": "uint256",
                                    "name": "points",
                                    "type": "uint256"
                                },
                                {
                                    "internalType": "uint256",
                                    "name": "blocks",
                                    "type": "uint256"
                                },
                                {
                                    "internalType": "uint256",
                                    "name": "steals",
                                    "type": "uint256"
                                }
                            ],
                            "internalType": "struct NBA_gembller.BPlayer[]",
                            "name": "players",
                            "type": "tuple[]"
                        },
                        {
                            "internalType": "uint256",
                            "name": "gamblerSum",
                            "type": "uint256"
                        },
                        {
                            "internalType": "uint256",
                            "name": "initialPrice",
                            "type": "uint256"
                        },
                        {
                            "internalType": "bool",
                            "name": "valid",
                            "type": "bool"
                        }
                    ],
                    "internalType": "struct NBA_gembller.UserGamble",
                    "name": "",
                    "type": "tuple"
                },
                {
                    "internalType": "bool",
                    "name": "",
                    "type": "bool"
                }
            ],
            "stateMutability": "view",
            "type": "function"
        }
    ],
    "bytecode": "608060405234801561001057600080fd5b506000808055600c805460ff199081169091556013805482169055601a80549091169055600b8190556012819055601955612e16806100506000396000f3fe608060405234801561001057600080fd5b50600436106100b45760003560e01c80634cd08d03116100715780634cd08d031461016d5780636423e2d5146101805780639b45976b146101a0578063ce573874146101b3578063d01772ce146101c6578063d4ffd89d146101e6576100b4565b806303b31cbd146100b95780631541b2c3146100e25780631cbeae5e146100f75780632bc33d90146101185780632ca045221461013a5780633a7d280c1461014d575b600080fd5b6100cc6100c7366004612825565b6101f9565b6040516100d99190612d69565b60405180910390f35b6100f56100f0366004612abf565b610540565b005b61010a610105366004612a62565b610594565b6040516100d9929190612d83565b61012b610126366004612a62565b610f28565b6040516100d993929190612c9e565b6100f5610148366004612825565b61110b565b61016061015b366004612825565b6114dd565b6040516100d99190612c93565b6100f561017b366004612860565b611509565b61019361018e366004612a62565b611625565b6040516100d99190612d0f565b6100f56101ae366004612971565b611cc0565b6100f56101c13660046128e4565b61225a565b6101d96101d43660046129b4565b612322565b6040516100d99190612da7565b6101d96101f4366004612a7a565b61235c565b610201612498565b6002826040516102119190612c77565b908152604080516020928190038301812080546002610100600183161581026000190190921604601f81018690049095028301610120908101909452820184815291939092849260a0840192859284929184918701828280156102b55780601f1061028a576101008083540402835291602001916102b5565b820191906000526020600020905b81548152906001019060200180831161029857829003601f168201915b50505050508152602001600182018054600181600116156101000203166002900480601f0160208091040260200160405190810160405280929190818152602001828054600181600116156101000203166002900480156103575780601f1061032c57610100808354040283529160200191610357565b820191906000526020600020905b81548152906001019060200180831161033a57829003601f168201915b5050509183525050600282810180546040805160206001841615610100026000190190931694909404601f810183900483028501830190915280845293810193908301828280156103e95780601f106103be576101008083540402835291602001916103e9565b820191906000526020600020905b8154815290600101906020018083116103cc57829003601f168201915b505050505081525050815260200160038201805480602002602001604051908101604052809291908181526020016000905b8282101561050e5760008481526020908190206040805160068602909201805460026001821615610100026000190190911604601f8101859004909402830160e090810190925260c08301848152929390928492909184918401828280156104c45780601f10610499576101008083540402835291602001916104c4565b820191906000526020600020905b8154815290600101906020018083116104a757829003601f168201915b50505050508152602001600182015481526020016002820154815260200160038201548152602001600482015481526020016005820154815250508152602001906001019061041b565b50505090825250600482015460208201526005820154604082015260069091015460ff16151560609091015292915050565b6000868152600460205260409020600586810290860201600a85020160078402016008830201600189141561057e57600e8201805482019055610589565b600f82018054820190555b505050505050505050565b61059c612498565b6000828152600460205260408120600f810154600e82015411156108ec576040805182546020600261010060018085161582026000190190941691909104601f81018390049092028401610120908101909552830181815285949293928592849260a0840192859284929184919087018282801561065b5780601f106106305761010080835404028352916020019161065b565b820191906000526020600020905b81548152906001019060200180831161063e57829003601f168201915b50505050508152602001600182018054600181600116156101000203166002900480601f0160208091040260200160405190810160405280929190818152602001828054600181600116156101000203166002900480156106fd5780601f106106d2576101008083540402835291602001916106fd565b820191906000526020600020905b8154815290600101906020018083116106e057829003601f168201915b5050509183525050600282810180546040805160206001841615610100026000190190931694909404601f8101839004830285018301909152808452938101939083018282801561078f5780601f106107645761010080835404028352916020019161078f565b820191906000526020600020905b81548152906001019060200180831161077257829003601f168201915b505050505081525050815260200160038201805480602002602001604051908101604052809291908181526020016000905b828210156108b45760008481526020908190206040805160068602909201805460026001821615610100026000190190911604601f8101859004909402830160e090810190925260c083018481529293909284929091849184018282801561086a5780601f1061083f5761010080835404028352916020019161086a565b820191906000526020600020905b81548152906001019060200180831161084d57829003601f168201915b5050505050815260200160018201548152602001600282015481526020016003820154815260200160048201548152602001600582015481525050815260200190600101906107c1565b50505090825250600482015460208201526005820154604082015260069091015460ff16151560609091015294509250610f23915050565b80600f015481600e01541015610bf857604080516007830180546020600261010060018085161582026000190190941691909104601f81018390049092028501610120908101909652840181815292949193928592849260a084019285928492849187018282801561099f5780601f106109745761010080835404028352916020019161099f565b820191906000526020600020905b81548152906001019060200180831161098257829003601f168201915b50505050508152602001600182018054600181600116156101000203166002900480601f016020809104026020016040519081016040528092919081815260200182805460018160011615610100020316600290048015610a415780601f10610a1657610100808354040283529160200191610a41565b820191906000526020600020905b815481529060010190602001808311610a2457829003601f168201915b5050509183525050600282810180546040805160206001841615610100026000190190931694909404601f81018390048302850183019091528084529381019390830182828015610ad35780601f10610aa857610100808354040283529160200191610ad3565b820191906000526020600020905b815481529060010190602001808311610ab657829003601f168201915b505050505081525050815260200160038201805480602002602001604051908101604052809291908181526020016000905b828210156108b45760008481526020908190206040805160068602909201805460026001821615610100026000190190911604601f8101859004909402830160e090810190925260c0830184815292939092849290918491840182828015610bae5780601f10610b8357610100808354040283529160200191610bae565b820191906000526020600020905b815481529060010190602001808311610b9157829003601f168201915b505050505081526020016001820154815260200160028201548152602001600382015481526020016004820154815260200160058201548152505081526020019060010190610b05565b60408051825460206002610100600184161581026000190190931604601f810182900490910283016101209081019094529082018181528493600093928592849260a08401928592849290918491870182828015610c975780601f10610c6c57610100808354040283529160200191610c97565b820191906000526020600020905b815481529060010190602001808311610c7a57829003601f168201915b50505050508152602001600182018054600181600116156101000203166002900480601f016020809104026020016040519081016040528092919081815260200182805460018160011615610100020316600290048015610d395780601f10610d0e57610100808354040283529160200191610d39565b820191906000526020600020905b815481529060010190602001808311610d1c57829003601f168201915b5050509183525050600282810180546040805160206001841615610100026000190190931694909404601f81018390048302850183019091528084529381019390830182828015610dcb5780601f10610da057610100808354040283529160200191610dcb565b820191906000526020600020905b815481529060010190602001808311610dae57829003601f168201915b505050505081525050815260200160038201805480602002602001604051908101604052809291908181526020016000905b82821015610ef05760008481526020908190206040805160068602909201805460026001821615610100026000190190911604601f8101859004909402830160e090810190925260c0830184815292939092849290918491840182828015610ea65780601f10610e7b57610100808354040283529160200191610ea6565b820191906000526020600020905b815481529060010190602001808311610e8957829003601f168201915b505050505081526020016001820154815260200160028201548152602001600382015481526020016004820154815260200160058201548152505081526020019060010190610dfd565b50505090825250600482015460208201526005820154604082015260069091015460ff1615156060909101529450925050505b915091565b60018181548110610f3857600080fd5b60009182526020918290206003919091020180546040805160026001841615610100026000190190931692909204601f810185900485028301850190915280825291935091839190830182828015610fd15780601f10610fa657610100808354040283529160200191610fd1565b820191906000526020600020905b815481529060010190602001808311610fb457829003601f168201915b505050505090806001018054600181600116156101000203166002900480601f01602080910402602001604051908101604052809291908181526020018280546001816001161561010002031660029004801561106f5780601f106110445761010080835404028352916020019161106f565b820191906000526020600020905b81548152906001019060200180831161105257829003601f168201915b50505060028085018054604080516020601f60001961010060018716150201909416959095049283018590048502810185019091528181529596959450909250908301828280156111015780601f106110d657610100808354040283529160200191611101565b820191906000526020600020905b8154815290600101906020018083116110e457829003601f168201915b5050505050905083565b60028160405161111b9190612c77565b90815260408051602092819003830190206000805481526004909352912081548290829061115f9082908490600260018216156101000260001901909116046124cf565b50600182018160010190805460018160011615610100020316600290046111879291906124cf565b50600282810180546111ac9284810192916000196101006001831615020116046124cf565b505050600382810180546111c39284019190612562565b50600482810154828201556005808401548184015560069384015493909201805460ff191660ff909416151593909317909255600080548152602092909252604090912001546112f457600080548152600460205260409020600680549091600701908290829061124a9082908490600260001961010060018416150201909116046124cf565b50600182018160010190805460018160011615610100020316600290046112729291906124cf565b50600282810180546112979284810192916000196101006001831615020116046124cf565b505050600382810180546112ae9284019190612562565b5060048281015490820155600580830154908201556006918201549101805460ff909216151560ff19928316179055600c805490911690556000805460010190556114da565b600080548152600460205260409020600501546101f414156113f757600080548152600460205260409020600d80549091600701908290829061134d9082908490600260001961010060018416150201909116046124cf565b50600182018160010190805460018160011615610100020316600290046113759291906124cf565b506002828101805461139a9284810192916000196101006001831615020116046124cf565b505050600382810180546113b19284019190612562565b5060048281015490820155600580830154908201556006918201549101805460ff909216151560ff199283161790556013805490911690556000805460010190556114da565b60008054815260046020526040902060148054909160070190829082906114349082908490600260001961010060018416150201909116046124cf565b506001820181600101908054600181600116156101000203166002900461145c9291906124cf565b50600282810180546114819284810192916000196101006001831615020116046124cf565b505050600382810180546114989284019190612562565b5060048281015490820155600580830154908201556006918201549101805460ff909216151560ff19928316179055601a805490911690556000805460010190555b50565b60006005826040516114ef9190612c77565b9081526040519081900360200190205460ff169050919050565b61151161260b565b506040805160608101825284815260208101849052808201839052905160059061153c908590612c77565b9081526040519081900360200190205460ff16156115755760405162461bcd60e51b815260040161156c90612ce1565b60405180910390fd5b806003846040516115869190612c77565b908152602001604051809103902060008201518160000190805190602001906115b092919061262c565b5060208281015180516115c9926001850192019061262c565b50604082015180516115e591600284019160209091019061262c565b509050506001600582602001516040516115ff9190612c77565b908152604051908190036020019020805491151560ff1990921691909117905550505050565b61162d6126a8565b6000828152600460209081526040918290208251815460026001821615610100026000190190911604601f810184900490930281016101a09081019094526101808101838152909391928492608084019285928492610120870192859284928491908a01828280156116e05780601f106116b5576101008083540402835291602001916116e0565b820191906000526020600020905b8154815290600101906020018083116116c357829003601f168201915b50505050508152602001600182018054600181600116156101000203166002900480601f0160208091040260200160405190810160405280929190818152602001828054600181600116156101000203166002900480156117825780601f1061175757610100808354040283529160200191611782565b820191906000526020600020905b81548152906001019060200180831161176557829003601f168201915b5050509183525050600282810180546040805160206001841615610100026000190190931694909404601f810183900483028501830190915280845293810193908301828280156118145780601f106117e957610100808354040283529160200191611814565b820191906000526020600020905b8154815290600101906020018083116117f757829003601f168201915b505050505081525050815260200160038201805480602002602001604051908101604052809291908181526020016000905b828210156119395760008481526020908190206040805160068602909201805460026001821615610100026000190190911604601f8101859004909402830160e090810190925260c08301848152929390928492909184918401828280156118ef5780601f106118c4576101008083540402835291602001916118ef565b820191906000526020600020905b8154815290600101906020018083116118d257829003601f168201915b505050505081526020016001820154815260200160028201548152602001600382015481526020016004820154815260200160058201548152505081526020019060010190611846565b505050908252506004820154602080830191909152600583015460408084019190915260069093015460ff16151560609092019190915291835280516007850180546002610100600183161581026000190190921604601f810186900486028401610120908101909552908301818152959094019491939092849260a084019285928492918491870182828015611a115780601f106119e657610100808354040283529160200191611a11565b820191906000526020600020905b8154815290600101906020018083116119f457829003601f168201915b50505050508152602001600182018054600181600116156101000203166002900480601f016020809104026020016040519081016040528092919081815260200182805460018160011615610100020316600290048015611ab35780601f10611a8857610100808354040283529160200191611ab3565b820191906000526020600020905b815481529060010190602001808311611a9657829003601f168201915b5050509183525050600282810180546040805160206001841615610100026000190190931694909404601f81018390048302850183019091528084529381019390830182828015611b455780601f10611b1a57610100808354040283529160200191611b45565b820191906000526020600020905b815481529060010190602001808311611b2857829003601f168201915b505050505081525050815260200160038201805480602002602001604051908101604052809291908181526020016000905b82821015611c6a5760008481526020908190206040805160068602909201805460026001821615610100026000190190911604601f8101859004909402830160e090810190925260c0830184815292939092849290918491840182828015611c205780601f10611bf557610100808354040283529160200191611c20565b820191906000526020600020905b815481529060010190602001808311611c0357829003601f168201915b505050505081526020016001820154815260200160028201548152602001600382015481526020016004820154815260200160058201548152505081526020019060010190611b77565b50505050815260200160048201548152602001600582015481526020016006820160009054906101000a900460ff1615151515815250508152602001600e8201548152602001600f820154815250509050919050565b80600283604051611cd19190612c77565b9081526020016040518091039020600501819055506001600283604051611cf89190612c77565b908152604051908190036020019020600601805491151560ff19909216919091179055611d2361260b565b600383604051611d339190612c77565b9081526040805160209281900383018120805460026001821615610100026000190190911604601f81018590049094028201608090810190935260608201848152919390928492918491840182828015611dce5780601f10611da357610100808354040283529160200191611dce565b820191906000526020600020905b815481529060010190602001808311611db157829003601f168201915b50505050508152602001600182018054600181600116156101000203166002900480601f016020809104026020016040519081016040528092919081815260200182805460018160011615610100020316600290048015611e705780601f10611e4557610100808354040283529160200191611e70565b820191906000526020600020905b815481529060010190602001808311611e5357829003601f168201915b5050509183525050600282810180546040805160206001841615610100026000190190931694909404601f81018390048302850183019091528084529381019390830182828015611f025780601f10611ed757610100808354040283529160200191611f02565b820191906000526020600020905b815481529060010190602001808311611ee557829003601f168201915b505050505081525050905080600284604051611f1e9190612c77565b90815260405160209181900382019020825180519192611f439284929091019061262c565b506020828101518051611f5c926001850192019061262c565b5060408201518051611f7891600284019160209091019061262c565b50905050611f86828461235c565b600284604051611f969190612c77565b90815260405190819003602001812060040191909155600b5490600290611fbe908690612c77565b90815260200160405180910390206005015414156120d757600c5460ff166120c55760028160200151604051611ff49190612c77565b90815260405190819003602001902080546006908290829061202c9082908490600260001961010060018416150201909116046124cf565b50600182018160010190805460018160011615610100020316600290046120549291906124cf565b50600282810180546120799284810192916000196101006001831615020116046124cf565b505050600382810180546120909284019190612562565b5060048281015490820155600580830154908201556006918201549101805460ff191660ff90921615159190911790556120d2565b6120d2816020015161110b565b612255565b6012546040516002906120eb908690612c77565b90815260200160405180910390206005015414156121595760135460ff166120c557600281602001516040516121219190612c77565b9081526040519081900360200190208054600d908290829061202c9082908490600260001961010060018416150201909116046124cf565b601a5460ff1661224857600281602001516040516121779190612c77565b9081526040519081900360200190208054601490829082906121af9082908490600260001961010060018416150201909116046124cf565b50600182018160010190805460018160011615610100020316600290046121d79291906124cf565b50600282810180546121fc9284810192916000196101006001831615020116046124cf565b505050600382810180546122139284019190612562565b5060048281015490820155600580830154908201556006918201549101805460ff191660ff9092161515919091179055612255565b612255816020015161110b565b505050565b6122626126dc565b6040518060c001604052808881526020018781526020018681526020018581526020018481526020018381525090506002886040516122a19190612c77565b9081526040516020918190038201902060030180546001810182556000918252908290208351805185946006909402909201926122e39284929091019061262c565b506020820151816001015560408201518160020155606082015181600301556080820151816004015560a0820151816005015550505050505050505050565b6000808260400151600a028360800151600f028460a00151600f0285606001516005028660200151600a0201010101905080915050919050565b60008060028360405161236f9190612c77565b908152602001604051809103902090506000805b600581101561248d5761248183600301828154811061239e57fe5b600091825260209182902060408051600693909302909101805460026001821615610100026000190190911604601f8101859004909402830160e090810190925260c08301848152929390928492909184918401828280156124415780601f1061241657610100808354040283529160200191612441565b820191906000526020600020905b81548152906001019060200180831161242457829003601f168201915b5050505050815260200160018201548152602001600282015481526020016003820154815260200160048201548152602001600582015481525050612322565b90910190600101612383565b509093019392505050565b6040518060a001604052806124ab61260b565b81526020016060815260200160008152602001600081526020016000151581525090565b828054600181600116156101000203166002900490600052602060002090601f0160209004810192826125055760008555612552565b82601f106125165780548555612552565b8280016001018555821561255257600052602060002091601f016020900482015b82811115612552578254825591600101919060010190612537565b5061255e929150612712565b5090565b8280548282559060005260206000209060060281019282156125ff5760005260206000209160060282015b828111156125ff578254839083906125bb9082908490600260001961010060018416150201909116046124cf565b50600182015481600101556002820154816002015560038201548160030155600482015481600401556005820154816005015550509160060191906006019061258d565b5061255e929150612727565b60405180606001604052806060815260200160608152602001606081525090565b828054600181600116156101000203166002900490600052602060002090601f0160209004810192826126625760008555612552565b82601f1061267b57805160ff1916838001178555612552565b82800160010185558215612552579182015b8281111561255257825182559160200191906001019061268d565b60405180608001604052806126bb612498565b81526020016126c8612498565b815260200160008152602001600081525090565b6040518060c001604052806060815260200160008152602001600081526020016000815260200160008152602001600081525090565b5b8082111561255e5760008155600101612713565b8082111561255e57600061273b8282612767565b506000600182018190556002820181905560038201819055600482018190556005820155600601612727565b50805460018160011615610100020316600290046000825580601f1061278d57506114da565b601f0160209004906000526020600020908101906114da9190612712565b600082601f8301126127bb578081fd5b813567ffffffffffffffff808211156127d057fe5b604051601f8301601f1916810160200182811182821017156127ee57fe5b60405282815292508284830160200186101561280957600080fd5b8260208601602083013760006020848301015250505092915050565b600060208284031215612836578081fd5b813567ffffffffffffffff81111561284c578182fd5b612858848285016127ab565b949350505050565b600080600060608486031215612874578182fd5b833567ffffffffffffffff8082111561288b578384fd5b612897878388016127ab565b945060208601359150808211156128ac578384fd5b6128b8878388016127ab565b935060408601359150808211156128cd578283fd5b506128da868287016127ab565b9150509250925092565b600080600080600080600060e0888a0312156128fe578283fd5b873567ffffffffffffffff80821115612915578485fd5b6129218b838c016127ab565b985060208a0135915080821115612936578485fd5b506129438a828b016127ab565b979a9799505050506040860135956060810135956080820135955060a0820135945060c09091013592509050565b60008060408385031215612983578182fd5b823567ffffffffffffffff811115612999578283fd5b6129a5858286016127ab565b95602094909401359450505050565b6000602082840312156129c5578081fd5b813567ffffffffffffffff808211156129dc578283fd5b9083019060c082860312156129ef578283fd5b60405160c081018181108382111715612a0457fe5b604052823582811115612a15578485fd5b612a21878286016127ab565b8252506020830135602082015260408301356040820152606083013560608201526080830135608082015260a083013560a082015280935050505092915050565b600060208284031215612a73578081fd5b5035919050565b60008060408385031215612a8c578182fd5b82359150602083013567ffffffffffffffff811115612aa9578182fd5b612ab5858286016127ab565b9150509250929050565b600080600080600080600060e0888a031215612ad9578283fd5b505085359760208701359750604087013596606081013596506080810135955060a0810135945060c0013592509050565b60008282518085526020808601955080818302840101818601855b84811015612b9157601f19868403018952815160c08151818652612b4b82870182612ba4565b838801518789015260408085015190880152606080850151908801526080808501519088015260a093840151939096019290925250509783019790830190600101612b25565b5090979650505050505050565b15159052565b60008151808452612bbc816020860160208601612db0565b601f01601f19169290920160200192915050565b6000815160a084528051606060a0860152612bef610100860182612ba4565b90506020820151609f19808784030160c0880152612c0d8383612ba4565b925060408401519350808784030160e08801525050612c2c8183612ba4565b91505060208301518482036020860152612c468282612b0a565b91505060408301516040850152606083015160608501526080830151612c6f6080860182612b9e565b509392505050565b60008251612c89818460208701612db0565b9190910192915050565b901515815260200190565b600060608252612cb16060830186612ba4565b8281036020840152612cc38186612ba4565b90508281036040840152612cd78185612ba4565b9695505050505050565b6020808252601490820152731d5cd95c88185b1b1c9958591e48195e1cda5cdd60621b604082015260600190565b600060208252825160806020840152612d2b60a0840182612bd0565b90506020840151601f19848303016040850152612d488282612bd0565b91505060408401516060840152606084015160808401528091505092915050565b600060208252612d7c6020830184612bd0565b9392505050565b600060408252612d966040830185612bd0565b905082151560208301529392505050565b90815260200190565b60005b83811015612dcb578181015183820152602001612db3565b83811115612dda576000848401525b5050505056fea264697066735822122049dd37c00a916aced7a5573a3fa6434c926469b8051a0ce13aa6b19f0ec4dd0364736f6c63430007040033",
    "sourcePath": "c:/blockChain_project/main2.sol",
    "compiler": {
        "name": "solc",
        "version": "0.7.4+commit.3f05b770"
    },
    "functionHashes": {
        "addPlayerToUser(string,string,uint256,uint256,uint256,uint256,uint256)": "ce573874",
        "addUserGambling(string,uint256)": "9b45976b",
        "calculataPlayerSum((string,uint256,uint256,uint256,uint256,uint256))": "d01772ce",
        "calculateDayStatisticsOfPlayer(uint256,uint256,uint256,uint256,uint256,uint256,uint256)": "1541b2c3",
        "calculateGamblePriceWinner(uint256,string)": "d4ffd89d",
        "createBattle(string)": "2ca04522",
        "getGamblingBattle(uint256)": "6423e2d5",
        "getUserGambllerByUserName(string)": "03b31cbd",
        "login(string)": "3a7d280c",
        "register(string,string,string)": "4cd08d03",
        "userWhoWantToGambller(uint256)": "2bc33d90",
        "winner(uint256)": "1cbeae5e"
    },
    "gasEstimates": {
        "creation": {
            "codeDepositCost": "2359600",
            "executionCost": "85020",
            "totalCost": "2444620"
        },
        "external": {
            "addPlayerToUser(string,string,uint256,uint256,uint256,uint256,uint256)": "infinite",
            "addUserGambling(string,uint256)": "infinite",
            "calculataPlayerSum((string,uint256,uint256,uint256,uint256,uint256))": "infinite",
            "calculateDayStatisticsOfPlayer(uint256,uint256,uint256,uint256,uint256,uint256,uint256)": "21379",
            "calculateGamblePriceWinner(uint256,string)": "infinite",
            "createBattle(string)": "infinite",
            "getGamblingBattle(uint256)": "infinite",
            "getUserGambllerByUserName(string)": "infinite",
            "login(string)": "infinite",
            "register(string,string,string)": "infinite",
            "userWhoWantToGambller(uint256)": "infinite",
            "winner(uint256)": "infinite"
        }
    }
}