{
    "contractName": "NBA_gembller",
    "abi": [
        {
            "inputs": [],
            "stateMutability": "nonpayable",
            "type": "constructor"
        },
        {
            "inputs": [
                {
                    "internalType": "string",
                    "name": "username",
                    "type": "string"
                }
            ],
            "name": "addUserGambling",
            "outputs": [],
            "stateMutability": "nonpayable",
            "type": "function"
        },
        {
            "inputs": [
                {
                    "internalType": "string",
                    "name": "userName",
                    "type": "string"
                }
            ],
            "name": "createBattle",
            "outputs": [],
            "stateMutability": "nonpayable",
            "type": "function"
        },
        {
            "inputs": [
                {
                    "internalType": "uint256",
                    "name": "battleNum",
                    "type": "uint256"
                }
            ],
            "name": "getGamblingBattle",
            "outputs": [
                {
                    "components": [
                        {
                            "components": [
                                {
                                    "components": [
                                        {
                                            "internalType": "string",
                                            "name": "firtsName",
                                            "type": "string"
                                        },
                                        {
                                            "internalType": "string",
                                            "name": "username",
                                            "type": "string"
                                        },
                                        {
                                            "internalType": "string",
                                            "name": "password",
                                            "type": "string"
                                        }
                                    ],
                                    "internalType": "struct NBA_gembller.User",
                                    "name": "user",
                                    "type": "tuple"
                                },
                                {
                                    "components": [
                                        {
                                            "internalType": "string",
                                            "name": "name",
                                            "type": "string"
                                        },
                                        {
                                            "internalType": "uint256",
                                            "name": "rebounds",
                                            "type": "uint256"
                                        },
                                        {
                                            "internalType": "uint256",
                                            "name": "asists",
                                            "type": "uint256"
                                        },
                                        {
                                            "internalType": "uint256",
                                            "name": "pointes",
                                            "type": "uint256"
                                        },
                                        {
                                            "internalType": "uint256",
                                            "name": "blocks",
                                            "type": "uint256"
                                        },
                                        {
                                            "internalType": "uint256",
                                            "name": "steals",
                                            "type": "uint256"
                                        },
                                        {
                                            "internalType": "uint256",
                                            "name": "rank",
                                            "type": "uint256"
                                        }
                                    ],
                                    "internalType": "struct NBA_gembller.BPlayer[]",
                                    "name": "players",
                                    "type": "tuple[]"
                                },
                                {
                                    "internalType": "uint256",
                                    "name": "gambleSum",
                                    "type": "uint256"
                                },
                                {
                                    "internalType": "bool",
                                    "name": "valid",
                                    "type": "bool"
                                }
                            ],
                            "internalType": "struct NBA_gembller.UserGamble",
                            "name": "userGamble1",
                            "type": "tuple"
                        },
                        {
                            "components": [
                                {
                                    "components": [
                                        {
                                            "internalType": "string",
                                            "name": "firtsName",
                                            "type": "string"
                                        },
                                        {
                                            "internalType": "string",
                                            "name": "username",
                                            "type": "string"
                                        },
                                        {
                                            "internalType": "string",
                                            "name": "password",
                                            "type": "string"
                                        }
                                    ],
                                    "internalType": "struct NBA_gembller.User",
                                    "name": "user",
                                    "type": "tuple"
                                },
                                {
                                    "components": [
                                        {
                                            "internalType": "string",
                                            "name": "name",
                                            "type": "string"
                                        },
                                        {
                                            "internalType": "uint256",
                                            "name": "rebounds",
                                            "type": "uint256"
                                        },
                                        {
                                            "internalType": "uint256",
                                            "name": "asists",
                                            "type": "uint256"
                                        },
                                        {
                                            "internalType": "uint256",
                                            "name": "pointes",
                                            "type": "uint256"
                                        },
                                        {
                                            "internalType": "uint256",
                                            "name": "blocks",
                                            "type": "uint256"
                                        },
                                        {
                                            "internalType": "uint256",
                                            "name": "steals",
                                            "type": "uint256"
                                        },
                                        {
                                            "internalType": "uint256",
                                            "name": "rank",
                                            "type": "uint256"
                                        }
                                    ],
                                    "internalType": "struct NBA_gembller.BPlayer[]",
                                    "name": "players",
                                    "type": "tuple[]"
                                },
                                {
                                    "internalType": "uint256",
                                    "name": "gambleSum",
                                    "type": "uint256"
                                },
                                {
                                    "internalType": "bool",
                                    "name": "valid",
                                    "type": "bool"
                                }
                            ],
                            "internalType": "struct NBA_gembller.UserGamble",
                            "name": "userGamble2",
                            "type": "tuple"
                        }
                    ],
                    "internalType": "struct NBA_gembller.GamblingBattle",
                    "name": "",
                    "type": "tuple"
                }
            ],
            "stateMutability": "view",
            "type": "function"
        },
        {
            "inputs": [
                {
                    "internalType": "string",
                    "name": "username",
                    "type": "string"
                }
            ],
            "name": "login",
            "outputs": [
                {
                    "internalType": "bool",
                    "name": "",
                    "type": "bool"
                }
            ],
            "stateMutability": "view",
            "type": "function"
        },
        {
            "inputs": [
                {
                    "internalType": "string",
                    "name": "firtsName",
                    "type": "string"
                },
                {
                    "internalType": "string",
                    "name": "username",
                    "type": "string"
                },
                {
                    "internalType": "string",
                    "name": "password",
                    "type": "string"
                }
            ],
            "name": "register",
            "outputs": [],
            "stateMutability": "nonpayable",
            "type": "function"
        },
        {
            "inputs": [
                {
                    "internalType": "uint256",
                    "name": "",
                    "type": "uint256"
                }
            ],
            "name": "userWhoWantToGambller",
            "outputs": [
                {
                    "internalType": "string",
                    "name": "firtsName",
                    "type": "string"
                },
                {
                    "internalType": "string",
                    "name": "username",
                    "type": "string"
                },
                {
                    "internalType": "string",
                    "name": "password",
                    "type": "string"
                }
            ],
            "stateMutability": "view",
            "type": "function"
        }
    ],
    "bytecode": "608060405234801561001057600080fd5b5060008055600b805460ff19169055611bbd8061002e6000396000f3fe608060405234801561001057600080fd5b50600436106100625760003560e01c80632bc33d90146100675780632ca04522146100925780633a7d280c146100a75780634cd08d03146100c75780635caa305b146100da5780636423e2d5146100ed575b600080fd5b61007a610075366004611916565b61010d565b60405161008993929190611aa4565b60405180910390f35b6100a56100a0366004611857565b6102f0565b005b6100ba6100b5366004611857565b6104ac565b6040516100899190611a99565b6100a56100d5366004611892565b6104d8565b6100a56100e8366004611857565b6105f4565b6101006100fb366004611916565b610e5f565b6040516100899190611b15565b6001818154811061011d57600080fd5b60009182526020918290206003919091020180546040805160026001841615610100026000190190931692909204601f8101859004850283018501909152808252919350918391908301828280156101b65780601f1061018b576101008083540402835291602001916101b6565b820191906000526020600020905b81548152906001019060200180831161019957829003601f168201915b505050505090806001018054600181600116156101000203166002900480601f0160208091040260200160405190810160405280929190818152602001828054600181600116156101000203166002900480156102545780601f1061022957610100808354040283529160200191610254565b820191906000526020600020905b81548152906001019060200180831161023757829003601f168201915b50505060028085018054604080516020601f60001961010060018716150201909416959095049283018590048502810185019091528181529596959450909250908301828280156102e65780601f106102bb576101008083540402835291602001916102e6565b820191906000526020600020905b8154815290600101906020018083116102c957829003601f168201915b5050505050905083565b6002816040516103009190611a7d565b9081526040805160209281900383019020600080548152600490935291208154829082906103449082908490600260018216156101000260001901909116046114c8565b506001820181600101908054600181600116156101000203166002900461036c9291906114c8565b50600282810180546103919284810192916000196101006001831615020116046114c8565b505050600382810180546103a8928401919061155b565b506004828101548282015560059283015492909101805460ff191660ff909316151592909217909155600080548152602091909152604090206006805490918201908290829061040e9082908490600261010060018316150260001901909116046114c8565b50600182018160010190805460018160011615610100020316600290046104369291906114c8565b506002828101805461045b9284810192916000196101006001831615020116046114c8565b50505060038281018054610472928401919061155b565b50600482810154908201556005918201549101805460ff909216151560ff19928316179055600b8054909116905550600080546001019055565b60006005826040516104be9190611a7d565b9081526040519081900360200190205460ff169050919050565b6104e061160e565b506040805160608101825284815260208101849052808201839052905160059061050b908590611a7d565b9081526040519081900360200190205460ff16156105445760405162461bcd60e51b815260040161053b90611ae7565b60405180910390fd5b806003846040516105559190611a7d565b9081526020016040518091039020600082015181600001908051906020019061057f92919061162f565b506020828101518051610598926001850192019061162f565b50604082015180516105b491600284019160209091019061162f565b509050506001600582602001516040516105ce9190611a7d565b908152604051908190036020019020805491151560ff1990921691909117905550505050565b6105fc6116ab565b6040518060e0016040528060405180604001604052806005815260200164776164653160d81b815250815260200160018152602001600181526020016001815260200160018152602001600181526020016001815250905061065c6116ab565b6040518060e00160405280604051806040016040528060058152602001643bb0b2329960d91b81525081526020016001815260200160018152602001600181526020016001815260200160018152602001600181525090506106bc6116ab565b6040518060e0016040528060405180604001604052806005815260200164776164653360d81b815250815260200160018152602001600181526020016001815260200160018152602001600181526020016001815250905061071c6116ab565b506040805161012081018252600560e08201818152641dd859194d60da1b610100840152825260208201526001918101829052606081018290526080810182905260a0810182905260c08101919091526107746116ab565b6040518060e0016040528060405180604001604052806005815260200164776164653560d81b81525081526020016001815260200160018152602001600181526020016001815260200160018152602001600181525090506107d461160e565b6003876040516107e49190611a7d565b9081526040805160209281900383018120805460026001821615610100026000190190911604601f8101859004909402820160809081019093526060820184815291939092849291849184018282801561087f5780601f106108545761010080835404028352916020019161087f565b820191906000526020600020905b81548152906001019060200180831161086257829003601f168201915b50505050508152602001600182018054600181600116156101000203166002900480601f0160208091040260200160405190810160405280929190818152602001828054600181600116156101000203166002900480156109215780601f106108f657610100808354040283529160200191610921565b820191906000526020600020905b81548152906001019060200180831161090457829003601f168201915b5050509183525050600282810180546040805160206001841615610100026000190190931694909404601f810183900483028501830190915280845293810193908301828280156109b35780601f10610988576101008083540402835291602001916109b3565b820191906000526020600020905b81548152906001019060200180831161099657829003601f168201915b5050505050815250509050600060069050816002896040516109d59190611a7d565b908152604051602091819003820190208251805191926109fa9284929091019061162f565b506020828101518051610a13926001850192019061162f565b5060408201518051610a2f91600284019160209091019061162f565b50905050600288604051610a439190611a7d565b908152604051602091819003820190206003018054600181018255600091825290829020895180518b94600790940290920192610a859284929091019061162f565b506020820151816001015560408201518160020155606082015181600301556080820151816004015560a0820151816005015560c082015181600601555050600288604051610ad49190611a7d565b908152604051602091819003820190206003018054600181018255600091825290829020885180518a94600790940290920192610b169284929091019061162f565b506020820151816001015560408201518160020155606082015181600301556080820151816004015560a0820151816005015560c082015181600601555050600288604051610b659190611a7d565b908152604051602091819003820190206003018054600181018255600091825290829020875180518994600790940290920192610ba79284929091019061162f565b506020820151816001015560408201518160020155606082015181600301556080820151816004015560a0820151816005015560c082015181600601555050600288604051610bf69190611a7d565b908152604051602091819003820190206003018054600181018255600091825290829020865180518894600790940290920192610c389284929091019061162f565b506020820151816001015560408201518160020155606082015181600301556080820151816004015560a0820151816005015560c082015181600601555050600288604051610c879190611a7d565b908152604051602091819003820190206003018054600181018255600091825290829020855180518794600790940290920192610cc99284929091019061162f565b506020820151816001015560408201518160020155606082015181600301556080820151816004015560a0820151816005015560c08201518160060155505080600289604051610d199190611a7d565b9081526020016040518091039020600401819055506001600289604051610d409190611a7d565b908152604051908190036020019020600501805491151560ff19909216919091179055600b5460ff16610e485760028260200151604051610d819190611a7d565b908152604051908190036020019020805460069082908290610db99082908490600260001961010060018416150201909116046114c8565b5060018201816001019080546001816001161561010002031660029004610de19291906114c8565b5060028281018054610e069284810192916000196101006001831615020116046114c8565b50505060038281018054610e1d928401919061155b565b50600482810154908201556005918201549101805460ff191660ff9092161515919091179055610e55565b610e5582602001516102f0565b5050505050505050565b610e676116e8565b6000828152600460209081526040918290208251815460026001821615610100026000190190911604601f81018490049093028101610140908101855261012082018481529194929385938401928592849260c08701928592849284918a0182828015610f155780601f10610eea57610100808354040283529160200191610f15565b820191906000526020600020905b815481529060010190602001808311610ef857829003601f168201915b50505050508152602001600182018054600181600116156101000203166002900480601f016020809104026020016040519081016040528092919081815260200182805460018160011615610100020316600290048015610fb75780601f10610f8c57610100808354040283529160200191610fb7565b820191906000526020600020905b815481529060010190602001808311610f9a57829003601f168201915b5050509183525050600282810180546040805160206001841615610100026000190190931694909404601f810183900483028501830190915280845293810193908301828280156110495780601f1061101e57610100808354040283529160200191611049565b820191906000526020600020905b81548152906001019060200180831161102c57829003601f168201915b505050505081525050815260200160038201805480602002602001604051908101604052809291908181526020016000905b8282101561117757600084815260209081902060408051600786029092018054600260018216156101009081026000190190921604601f81018690049095028401810190925260e08301848152929390928492909184918401828280156111235780601f106110f857610100808354040283529160200191611123565b820191906000526020600020905b81548152906001019060200180831161110657829003601f168201915b5050505050815260200160018201548152602001600282015481526020016003820154815260200160048201548152602001600582015481526020016006820154815250508152602001906001019061107b565b50505090825250600482015460208083019190915260059092015460ff16151560409182015291835281516006850180546002610100600183161581026000190190921604601f810185900485028401820190955260e08301858152959093019491939092849260808401928592849291849187018282801561123b5780601f106112105761010080835404028352916020019161123b565b820191906000526020600020905b81548152906001019060200180831161121e57829003601f168201915b50505050508152602001600182018054600181600116156101000203166002900480601f0160208091040260200160405190810160405280929190818152602001828054600181600116156101000203166002900480156112dd5780601f106112b2576101008083540402835291602001916112dd565b820191906000526020600020905b8154815290600101906020018083116112c057829003601f168201915b5050509183525050600282810180546040805160206001841615610100026000190190931694909404601f8101839004830285018301909152808452938101939083018282801561136f5780601f106113445761010080835404028352916020019161136f565b820191906000526020600020905b81548152906001019060200180831161135257829003601f168201915b505050505081525050815260200160038201805480602002602001604051908101604052809291908181526020016000905b8282101561149d57600084815260209081902060408051600786029092018054600260018216156101009081026000190190921604601f81018690049095028401810190925260e08301848152929390928492909184918401828280156114495780601f1061141e57610100808354040283529160200191611449565b820191906000526020600020905b81548152906001019060200180831161142c57829003601f168201915b505050505081526020016001820154815260200160028201548152602001600382015481526020016004820154815260200160058201548152602001600682015481525050815260200190600101906113a1565b505050908252506004820154602082015260059091015460ff16151560409091015290525092915050565b828054600181600116156101000203166002900490600052602060002090601f0160209004810192826114fe576000855561154b565b82601f1061150f578054855561154b565b8280016001018555821561154b57600052602060002091601f016020900482015b8281111561154b578254825591600101919060010190611530565b5061155792915061170d565b5090565b8280548282559060005260206000209060070281019282156116025760005260206000209160070282015b82811115611602578254839083906115b49082908490600260001961010060018416150201909116046114c8565b50600182015481600101556002820154816002015560038201548160030155600482015481600401556005820154816005015560068201548160060155505091600701919060070190611586565b50611557929150611722565b60405180606001604052806060815260200160608152602001606081525090565b828054600181600116156101000203166002900490600052602060002090601f016020900481019282611665576000855561154b565b82601f1061167e57805160ff191683800117855561154b565b8280016001018555821561154b579182015b8281111561154b578251825591602001919060010190611690565b6040518060e00160405280606081526020016000815260200160008152602001600081526020016000815260200160008152602001600081525090565b60405180604001604052806116fb611769565b8152602001611708611769565b905290565b5b80821115611557576000815560010161170e565b808211156115575760006117368282611796565b50600060018201819055600282018190556003820181905560048201819055600582018190556006820155600701611722565b604051806080016040528061177c61160e565b815260606020820181905260006040830181905291015290565b50805460018160011615610100020316600290046000825580601f106117bc57506117da565b601f0160209004906000526020600020908101906117da919061170d565b50565b600082601f8301126117ed578081fd5b813567ffffffffffffffff8082111561180257fe5b604051601f8301601f19168101602001828111828210171561182057fe5b60405282815292508284830160200186101561183b57600080fd5b8260208601602083013760006020848301015250505092915050565b600060208284031215611868578081fd5b813567ffffffffffffffff81111561187e578182fd5b61188a848285016117dd565b949350505050565b6000806000606084860312156118a6578182fd5b833567ffffffffffffffff808211156118bd578384fd5b6118c9878388016117dd565b945060208601359150808211156118de578384fd5b6118ea878388016117dd565b935060408601359150808211156118ff578283fd5b5061190c868287016117dd565b9150509250925092565b600060208284031215611927578081fd5b5035919050565b15159052565b6000815180845261194c816020860160208601611b57565b601f01601f19169290920160200192915050565b600081516080845260e08151606080608088015261198083880183611934565b9150602080850151607f1960a0818b870301818c01526119a08684611934565b95506040925082880151975060c0828c880301818d01526119c1878a611934565b8b8601518d82038e8801528051808352919a5086019750858a0193508086028a0186018b5b82811015611a51578b8203601f19018652895180518c8452611a0a8d850182611934565b828b0151858c0152898301518a8601528b8301518c8601526080808401519086015287830151888601529186015193860193909352998801999588019591506001016119e6565b50858d0151868f0152878d01519a50611a6c888f018c61192e565b9d9c50505050505050505050505050565b60008251611a8f818460208701611b57565b9190910192915050565b901515815260200190565b600060608252611ab76060830186611934565b8281036020840152611ac98186611934565b90508281036040840152611add8185611934565b9695505050505050565b6020808252601490820152731d5cd95c88185b1b1c9958591e48195e1cda5cdd60621b604082015260600190565b600060208252825160406020840152611b316060840182611960565b90506020840151601f19848303016040850152611b4e8282611960565b95945050505050565b60005b83811015611b72578181015183820152602001611b5a565b83811115611b81576000848401525b5050505056fea2646970667358221220fdf5a32a53c8c4b3927787b4f8500a23bf52a3741c2accbc7cca414fcd4f418064736f6c63430007040033",
    "sourcePath": "c:/BlockChain_nba/main2.sol",
    "compiler": {
        "name": "solc",
        "version": "0.7.4+commit.3f05b770"
    },
    "functionHashes": {
        "addUserGambling(string)": "5caa305b",
        "createBattle(string)": "2ca04522",
        "getGamblingBattle(uint256)": "6423e2d5",
        "login(string)": "3a7d280c",
        "register(string,string,string)": "4cd08d03",
        "userWhoWantToGambller(uint256)": "2bc33d90"
    },
    "gasEstimates": {
        "creation": {
            "codeDepositCost": "1420200",
            "executionCost": "27303",
            "totalCost": "1447503"
        },
        "external": {
            "addUserGambling(string)": "infinite",
            "createBattle(string)": "infinite",
            "getGamblingBattle(uint256)": "infinite",
            "login(string)": "infinite",
            "register(string,string,string)": "infinite",
            "userWhoWantToGambller(uint256)": "infinite"
        }
    }
}